:020000020000FE
:100000000C9465000C948D000C948D000C948D0064
:100010000C948D000C948D000C94B9000C948D0000
:100020000C948D000C948D000C948D000C948D001C
:100030000C948D000C948D000C948D000C948D000C
:100040000C9481050C948D000C9441030C948F0347
:100050000C948D000C9459010C948D000C948D001F
:100060000C948D000C948D000000000024002700EB
:100070002A0000000000250028002B0000000000DE
:1000800023002600290004040404040404040202DA
:100090000202020203030303030301020408102007
:1000A0004080010204081020010204081020000012
:1000B0000007000201000003040600000000000029
:1000C0000000DB00F2045707220911241FBECFEF06
:1000D000D4E0DEBFCDBF11E0A0E0B1E0ECE4F9E197
:1000E00002C005900D92AA31B107D9F712E0AAE13A
:1000F000B1E001C01D92A832B107E1F710E0CAECEF
:10010000D0E004C02297FE010E94A00CC23CD1079F
:10011000C9F70E9472050C94A40C0C940000DC0139
:1001200001C06D9341505040E0F70895EAE7F0E0D8
:1001300080818F7780838091780090E0A0E0B0E0AC
:1001400060917900362F20E0442737FD4095542FE9
:10015000282B392B4A2B5B2B60E070E381E190E088
:100160000E94830C2456304040405040B901CA01DF
:1001700008951F920F920FB60F9211248F939F93A1
:1001800080915A01882349F480915B0190915C0130
:10019000019690935C0180935B0180915A018130BC
:1001A00019F482E080935A019F918F910F900FBEB6
:1001B0000F901F9018958DE591E066E00E940D0B61
:1001C00008950F931F930DE511E0C8010E942C0ABA
:1001D000C80169E471E00E940B0AC80164E441E0CF
:1001E0000E94CB091F910F9108951F938DE591E017
:1001F0000E942C0A80933B018DE591E069E471E057
:100200000E940B0A8DE591E06EEB40E00E94CB0965
:1002100010923A010EC08DE591E00E947A09E12F1B
:10022000F0E0E35CFE4F808380913A018F5F809322
:100230003A0110913A01193070F390913E0180E03B
:1002400020913D01422F50E0482B592B80913C01D9
:10025000882399F083E0440F551F8A95E1F7809138
:1002600044018031B9F4209143018CE090E0821B7D
:100270009109407F480F591F0DC080914101807640
:1002800011F4487F07C0803211F44C7F03C08034E2
:1002900009F44E7FBA01882777FD8095982F0E9438
:1002A000720B20E030E040E85DE30E94FE0B1F91FE
:1002B00008951F920F920FB60F9211242F933F9320
:1002C0004F935F936F937F938F939F93AF93BF935E
:1002D000EF93FF9383E080935A0182E161E00E94F3
:1002E000B20683E161E00E94B206FF91EF91BF91F7
:1002F000AF919F918F917F916F915F914F913F91BE
:100300002F910F900FBE0F901F901895EF92FF92B4
:100310000F931F93DF93CF93CDB7DEB728970FB618
:10032000F894DEBF0FBECDBF80915A01882379F4C7
:1003300020915B0130915C018091530190915401B7
:100340002817390721F083B7817F846083BF8091AC
:100350005A018823A1F420915B0130915C018091C6
:100360005301909154012817390749F481E0809393
:100370005A010E94E10083B7817F846083BF80912E
:100380005A018230A1F48EE480937C0080917A003F
:10039000886880937A0083B7817F826083BF82E11F
:1003A00060E00E94B20683E161E00E94B2068091A3
:1003B0005A01833009F0A4C083B7817F846083BF72
:1003C00082E161E00E94B20683E160E00E94B20631
:1003D0000E94F50069837A838B839C838E010F5F73
:1003E0001F4F0E9496006D837E838F83988795E0D0
:1003F000E92EF12CEC0EFD1E8AE191E060E270E046
:1004000040E250E00E948F00809151019091520192
:1004100080931A0190931B0182E080931C018091CC
:10042000490180931D0180914A0180931E018091B2
:100430004B0180931F0180914C018093200180919A
:100440004D018093210180914E0180932201809182
:100450004F01809323018091500180932401898171
:1004600080932501F8018181809326018281809308
:1004700027018381809328018D8180932901F701D1
:10048000818180932A01828180932B0183818093D3
:100490002C010AE111E092E4F80181918F01982783
:1004A000F1E009331F07C1F7F801908384E78093D7
:1004B00055018DE68093560181E680935701109295
:1004C0005801109259018EE192E065E571E00E94B9
:1004D000B6070F5110408EE192E0B8010E949C08CF
:1004E0008EE192E00E946B088823D1F78EE192E0C2
:1004F0000E94410810925A0110925C0110925B0117
:10050000A89583B7816083BF889582E161E00E94EE
:10051000B20683E160E00E94B20628960FB6F89416
:10052000DEBF0FBECDBFCF91DF911F910F91FF9026
:10053000EF9008950F931F9380917A008F778093A7
:100540007A0083E161E00E94730682E161E00E942B
:10055000730683EF91E040E855E260E070E00E94AE
:10056000CA0384B7877F84BF8091600088618093CD
:10057000600086E0809360008091600080648093DA
:10058000600084B7877F84BF87E292E060E070E01C
:100590000E943209082F87E292E061E070E00E9439
:1005A0003209382F20E010E0202B312B30935201FC
:1005B0002093510187E292E062E070E00E943209EC
:1005C000082F87E292E063E070E00E943209382F42
:1005D00020E010E0202B312B309354012093530165
:1005E00085E292E090932402809323028EE192E0D0
:1005F0000E94FA08909151012091520184E7809362
:1006000055018DE68093560181E6809357019093C2
:100610005801209359018EE192E065E571E00E9456
:10062000E40880E2809322028EE192E00E947F083B
:100630008EE192E00E9441088DE591E069E471E06D
:100640000E94770A882359F48DE591E00E943909C8
:100650006AEF70E080E090E00E94D5050EC08091C6
:100660004901823241F0883231F0803131F481E049
:1006700080933C0102C010923C011F910F9108959C
:1006800008951F920F920FB60F9211242F933F934C
:100690004F938F939F93EF93FF938091C00082FDC0
:1006A0001DC04091C6002091AB013091AC012F5F7D
:1006B0003F4F2F7330708091AD019091AE0128179C
:1006C000390771F0E091AB01F091AC01E559FE4FB3
:1006D00040833093AC012093AB0102C08091C600EF
:1006E000FF91EF919F918F914F913F912F910F909B
:1006F0000FBE0F901F901895E091FF01F09100023E
:10070000E05CFF4F8191919120813181821B930B9D
:100710008F739070892B11F00E94400308951F92EF
:100720000F920FB60F9211242F933F938F939F93A5
:10073000EF93FF932091EF013091F0018091F1014F
:100740009091F2012817390731F48091C1008F7D13
:100750008093C10014C0E091F101F091F201E155E4
:10076000FE4F20818091F1019091F20101968F73EB
:1007700090709093F2018093F1012093C600FF9155
:10078000EF919F918F913F912F910F900FBE0F90FE
:100790001F901895AF92BF92DF92EF92FF920F9346
:1007A0001F93CF93DF93EC017A018B01DD24D39467
:1007B00091E0A92EB12CEC89FD89DD2069F0C501FD
:1007C00008A002C0880F991F0A94E2F7808360E8AE
:1007D00074E88EE190E005C0108260E472E48FE07E
:1007E00090E0A80197010E94610C215030404040E8
:1007F0005040569547953795279580E1203038072A
:1008000020F0DD2011F0DD24D6CFE889F98930838E
:10081000EA89FB89208319A2EE89FF89408121E0C2
:1008200030E0C9010C8C02C0880F991F0A94E2F7CE
:10083000482B4083EE89FF894081C9010D8C02C09D
:10084000880F991F0A94E2F7482B4083EE89FF89AD
:100850004081C9010E8C02C0880F991F0A94E2F7EB
:10086000482B4083EE89FF8980810F8C02C0220FC4
:10087000331F0A94E2F7209528232083DF91CF913C
:100880001F910F91FF90EF90DF90BF90AF90089570
:10089000DC011C96ED91FC911D97E05CFF4F2191CE
:1008A000319180819181281B390B2F733070C901E0
:1008B0000895DC011C96ED91FC911D97E05CFF4FC3
:1008C00020813181E054F040DF01AE5BBF4F8D915C
:1008D0009C9111972817390719F42FEF3FEF07C0A4
:1008E0008D919C91E80FF91F8081282F30E0C9017C
:1008F0000895DC011C96ED91FC911D97E05CFF4F83
:1009000020813181E054F040DF01AE5BBF4F8D911B
:100910009C9111972817390719F42FEF3FEF10C05A
:100920008D919C911197E80FF91F20818D919C91D9
:10093000119701968F73907011969C938E9330E06F
:10094000C9010895DC0191968C919197882339F023
:100950005496ED91FC915597808186FFF9CF919641
:100960001C920895CF93DF93EC01EE85FF85E05C48
:10097000FF4F20813181E054F0402F5F3F4F2F73B4
:100980003070DF01AE5BBF4F8D919C91119728179E
:100990003907D1F3E05CFF4F80819181E054F04052
:1009A000E80FF91F6083EE85FF85E05CFF4F318320
:1009B0002083EE89FF89208181E090E00F8C02C0C6
:1009C000880F991F0A94E2F7282B208381E089A3DE
:1009D000EC89FD8980818064808381E090E0DF91F3
:1009E000CF9108951092F6011092F50188EE93E0F0
:1009F000A0E0B0E08093F7019093F801A093F90193
:100A0000B093FA0184E091E09093F4018093F301B4
:100A10008BE691E0909300028093FF018FEA91E0D2
:100A2000909302028093010285EC90E0909304027F
:100A30008093030284EC90E0909306028093050279
:100A400080EC90E0909308028093070281EC90E0A4
:100A500090930A028093090282EC90E090930C023A
:100A600080930B0286EC90E090930E0280930D022F
:100A700084E080930F0283E08093100287E08093EC
:100A8000110285E08093120281E0809313020895A1
:100A9000CF92DF92EF92FF920F931F93CF93DF934A
:100AA0007C016B018A01C0E0D0E00FC0D6016D91DE
:100AB0006D01D701ED91FC910190F081E02DC7010E
:100AC0000995C80FD91F015010400115110571F784
:100AD000CE01DF91CF911F910F91FF90EF90DF90AA
:100AE000CF900895CF93DF930E9438060E949A0218
:100AF000CCE7D3E00E9486012097E1F30E947C03BB
:100B0000F9CF1F920F920FB60F9211242F933F939C
:100B10004F935F936F937F938F939F93AF93BF9305
:100B20002091190230911A0240911B0250911C022F
:100B300070911D02DA01C9010296A11DB11D672F36
:100B40006A5F6D3730F06D57DA01C9010396A11D58
:100B5000B11D60931D028093190290931A02A09315
:100B60001B02B0931C028091150290911602A09175
:100B70001702B09118020196A11DB11D80931502B4
:100B800090931602A0931702B0931802BF91AF91F1
:100B90009F918F917F916F915F914F913F912F9195
:100BA0000F900FBE0F901F9018959B01AC017FB75F
:100BB000F8948091150290911602A0911702B091BD
:100BC000180266B5A89B05C06F3F19F00196A11DDC
:100BD000B11D7FBFBA2FA92F982F8827860F911D8F
:100BE000A11DB11D63E0880F991FAA1FBB1F6A9545
:100BF000D1F7BC012DC0FFB7F894809115029091F8
:100C00001602A0911702B0911802E6B5A89B05C084
:100C1000EF3F19F00196A11DB11DFFBFBA2FA92FFB
:100C2000982F88278E0F911DA11DB11DE3E0880F1D
:100C3000991FAA1FBB1FEA95D1F7861B970B885EE9
:100C40009340C8F2215030404040504068517C4FA2
:100C5000211531054105510571F60895019739F0C7
:100C6000019729F0880F991F01970197F1F70895CF
:100C7000789484B5826084BD84B5816084BD85B577
:100C8000826085BD85B5816085BDEEE6F0E080813E
:100C900081608083E1E8F0E010828081826080835F
:100CA000808181608083E0E8F0E0808181608083E2
:100CB000E1EBF0E0808184608083E0EBF0E0808114
:100CC00081608083EAE7F0E08081846080838081B6
:100CD000826080838081816080838081806880835E
:100CE0001092C1000895CF93DF93482F50E0CA01BE
:100CF00086569F4FFC0134914A575F4FFA01849109
:100D0000882369F190E0880F991FFC01E859FF4F93
:100D1000A591B491FC01EE58FF4FC591D491662383
:100D200051F42FB7F8948C91932F909589238C933D
:100D3000888189230BC0623061F42FB7F8948C91BD
:100D4000932F909589238C938881832B88832FBF41
:100D500006C09FB7F8948C91832B8C939FBFDF9133
:100D6000CF910895482F50E0CA0182559F4FFC0152
:100D70002491CA0186569F4FFC0194914A575F4FB8
:100D8000FA013491332309F440C0222351F1233076
:100D900071F0243028F42130A1F0223011F514C074
:100DA0002630B1F02730C1F02430D9F404C080914E
:100DB00080008F7703C0809180008F7D80938000BA
:100DC00010C084B58F7702C084B58F7D84BD09C003
:100DD0008091B0008F7703C08091B0008F7D8093A9
:100DE000B000E32FF0E0EE0FFF1FEE58FF4FA5918C
:100DF000B4912FB7F894662321F48C9190958923B0
:100E000002C08C91892B8C932FBF0895BF92CF92F3
:100E1000DF92EF92FF920F931F93CF93DF936C01BA
:100E20007A01B22E8B01C0E0D0E013C0F601A5819B
:100E3000B681ED91FC9111970190F081E02DCD01EB
:100E4000D8016D918D010995F701EC0FFD1F80838D
:100E50002196CB1558F3DF91CF911F910F91FF9001
:100E6000EF90DF90CF90BF900895EF92FF920F9395
:100E70001F93CF93DF937C01042FEB0110E00EC092
:100E8000D7011596ED91FC911697A081B1812D9116
:100E90003C91CF016991F90109951F5F101780F30B
:100EA000DF91CF911F910F91FF90EF90089588E00F
:100EB00080931F0287E08093200282E080932102CA
:100EC00080E180932202109224021092230208955E
:100ED000FC01828160E00E94B2060895FC018281DB
:100EE00061E00E94B20608950F931F938C010E9447
:100EF0006807F801A581B681ED91FC9111970190E9
:100F0000F081E02DCD0162EE0995C8010E946E07C7
:100F10001F910F910895CF92DF92EF92FF920F935E
:100F20001F938C01F62E6A01E22E0E946807F801D9
:100F3000A581B681ED91FC9111978FE1F82280E2B5
:100F4000F82A0190F081E02DCD016F2D0995C8019F
:100F5000B6014E2D0E943507C8010E946E071F91F1
:100F60000F91FF90EF90DF90CF900895EF92FF9256
:100F70000F931F938C017B016AE0A70125E00E947B
:100F80008B07C80160E1A70125E00E948B071F9134
:100F90000F91FF90EF900895CF92DF92EF92FF9222
:100FA0000F931F938C01F62E6A01E22E0E946807B0
:100FB000F801A581B681ED91FC9111978FE1F8229E
:100FC0000190F081E02DCD016F2D0995C801B6018A
:100FD000A6012E2D0E940607C8010E946E071F91D0
:100FE0000F91FF90EF90DF90CF900895DF93CF9314
:100FF0000F92CDB7DEB767E0AE014F5F5F4F21E0E4
:101000000E94CC0789810F90CF91DF910895EF92D4
:10101000FF920F931F937C01162F042F0E946807E5
:10102000F701A581B681ED91FC9111971F711062B6
:101030000190F081E02DCD01612F0995F701A58187
:10104000B681ED91FC9111970190F081E02DCD01D9
:10105000602F0995C7010E946E071F910F91FF90A5
:10106000EF900895FC0181E08083CF0160E04AE0C9
:101070000E9407080895FC01818160E00E94B20689
:1010800008950F931F938C010E943B08C80160E0F4
:1010900048E00E9407081F910F910895FC0181818B
:1010A00061E00E94B20608950F931F938C01FC012A
:1010B00010820E943B08C80160E04BE00E940708D4
:1010C000C8010E944E08C80167E040E30E9407087B
:1010D0001F910F910895CF93DF93EC0188818823AE
:1010E00059F0CE010E94F607807311F481E004C02C
:1010F000CE010E94540880E0DF91CF9108950F93B4
:101100001F938C0165E0F80143810E940708C80124
:1011100061E1F80144810E940708C80162E1F80119
:1011200044810E940708C8010E945408C8010E9417
:1011300074071F910F9108950F931F93CF93DF931F
:10114000EC018B010E94F60707C0CE010E94F60752
:10115000807311F0188203C088818823B1F7CE0113
:101160000E943B08CE010E943208CE010E9468070F
:10117000AD81BE81ED91FC9111970190F081E02D40
:10118000CD0161EE0995CE010E946E07CE010E944D
:101190006807AD81BE81ED91FC9111970190F081BE
:1011A000E02DCD0160EA0995CE01B8014C810E9485
:1011B0003507CE010E946E07CE010E944E08DF91D6
:1011C000CF911F910F910895EF92FF920F931F936C
:1011D0008C017B010E943B08C8016BE0A70125E060
:1011E0000E948B07C8010E944E081F910F91FF902B
:1011F000EF9008950F931F938C01FC01818161E0B2
:101200000E947306F801828161E00E947306C801A2
:101210000E943B08C8010E946E07F801A581B681B3
:10122000ED91FC9111970280F381E02DCD0109959C
:101230001F910F9108956EBD0DB407FEFDCF8EB5C1
:101240000895089584E191E0909326028093250209
:1012500008950E94590B80E00E94430B81E00E9498
:10126000480B0895F999FECF72BD61BDF89A80B51B
:101270000895FC0113861586148687E090E0128697
:101280003197009711F00197FACF0895DF92EF920E
:10129000FF920F931F93FC01E08001811281F8946B
:1012A000F80181818E2981838281DE2CD0948D2169
:1012B000828383E090E00E942E06F80181818D21D7
:1012C00081838AE090E00E942E06F80100817894E4
:1012D00085E390E00E942E0680E010E0FF240E21BE
:1012E0001F21012B09F081E01F910F91FF90EF90DA
:1012F000DF900895EF92FF920F931F93CF93DF93A8
:101300007C0101E010E0C0E0D0E0C7010E94460986
:101310008111102B000F2196C830D105B1F7812F14
:10132000DF91CF911F910F91FF90EF9008951F9340
:10133000CF93DF93FC011081C181D281912F9095D1
:1013400060FF12C0F8948A8189238A838981812B66
:1013500089838AE090E00E942E068A81812B8A830D
:10136000789487E390E011C0F8948A8189238A8376
:101370008981812B898381E490E00E942E068A81F5
:10138000812B8A83789485E090E00E942E06DF917D
:10139000CF911F910895CF92DF92EF92FF920F931A
:1013A0001F93CF93DF938C01E42EFF24F394C0E0CE
:1013B000D0E0C62EDD2460E08F2D90E08C219D21B1
:1013C000892B09F061E0C8010E949709FF0C219662
:1013D000C830D10581F7EE20A9F4F894D801119610
:1013E000ED91FC91129791818C9180959823918336
:1013F0001196ED91FC91129792818C918095982392
:1014000092837894DF91CF911F910F91FF90EF908D
:10141000DF90CF900895EF92FF920F931F93CF9399
:10142000DF938C017B0165E540E00E94CB09C0E0C1
:10143000D0E0F701EC0FFD1FC801608140E00E9481
:10144000CB092196C830D105A1F7DF91CF911F912B
:101450000F91FF90EF900895DF92EF92FF920F931C
:101460001F93CF93DF93FC010081C181D281F89457
:101470008981D02ED0948D21898378941DE7E02E28
:10148000FF24115059F182E090E00E942E068881DD
:1014900090E08E219F21892BA1F3F8948A818D21E0
:1014A0008A838981802B8983789480EE91E00E94E1
:1014B0002E06F89489818D21898386E490E00E942C
:1014C0002E06888110E090E0E822F922EF2809F446
:1014D00011E078948AE991E00E942E06812FDF9135
:1014E000CF911F910F91FF90EF90DF900895AF92F1
:1014F000BF92DF92EF92FF920F931F93CF93DF93F0
:10150000EC015B018D85882309F061C0CE010E944A
:101510002C0A882329F41B861D861C8690E06BC04C
:10152000CE0160EF40E00E94CB0901E0DD24EE2413
:10153000FF24F394CE010E944609182FCE010E9489
:101540004609113019F48130E1F439C0181709F552
:101550008B85081770F460E0FE01EE0DF11D8381AC
:1015600090E02F2D30E082239323181619064CF0BB
:1015700003C060E0081729F0093008F04CC00C8760
:101580004AC0FE01EE0DF11D83818F29838361E046
:1015900009C0612FFE01EE0DF11D9F2D90958381F5
:1015A00089238383CE010E9497090F5FFF0C19F4F2
:1015B000E394FF24F39487E08E1508F0BBCF013449
:1015C00030F0DB86DD2011F581E08D871FC01B86A2
:1015D0001D861C8690E0DE0120E030E0F501E20F80
:1015E000F31F13968C91139780832F5F3F4F1196B3
:1015F0002830310599F7892FDF91CF911F910F91F5
:10160000FF90EF90DF90BF90AF9008958B8188237B
:10161000F1F291E0E0CFD02EBDCFFF920F931F9358
:101620008C01F62E862F60E00E9473068F2D90E0CD
:10163000FC01E656FF4FE491D801EC938A579F4F87
:10164000FC016491E62FF0E0EE0FFF1FE458FF4F1E
:101650008591949112969C938E9311971B961C9250
:101660001B971D961C921D971C961C92F80187E0F3
:1016700090E012863197009711F00197FACF1F91F1
:101680000F91FF9008959CB5937F982B9CBD089572
:101690002CB5382F33702C7F322B3CBD2DB590E00C
:1016A000959587959595879581702E7F822B8DBD19
:1016B00008958AE061E00E94B2068AE061E00E943B
:1016C00073068CB580618CBD8CB580648CBD8DE05B
:1016D00061E00E9473068BE061E00E94730608954A
:1016E000E89409C097FB3EF49095809570956195BC
:1016F0007F4F8F4F9F4F9923A9F0F92F96E9BB2772
:101700009395F695879577956795B795F111F8CFED
:10171000FAF4BB0F11F460FF1BC06F5F7F4F8F4F58
:101720009F4F16C0882311F096E911C0772321F04E
:101730009EE8872F762F05C0662371F096E8862FE6
:1017400070E060E02AF09A95660F771F881FDAF73D
:10175000880F9695879597F9089597F99F6780E880
:1017600070E060E008959FEF80EC089500240A94F3
:101770001616170618060906089500240A9412166C
:101780001306140605060895092E0394000C11F49F
:10179000882352F0BB0F40F4BF2B11F460FF04C04C
:1017A0006F5F7F4F8F4F9F4F089557FD9058440FA5
:1017B000551F59F05F3F71F04795880F97FB991FB0
:1017C00061F09F3F79F0879508951216130614066D
:1017D000551FF2CF4695F1DF08C0161617061806FA
:1017E000991FF1CF86957105610508940895E894D5
:1017F000BB2766277727CB0197F908950BD0C4CF75
:10180000B5DF28F0BADF18F0952309F0A6CFABCFEB
:101810001124EECFCADFA0F3959FD1F3950F50E0CE
:10182000551F629FF001729FBB27F00DB11D639F92
:10183000AA27F00DB11DAA1F649F6627B00DA11D38
:10184000661F829F2227B00DA11D621F739FB00DDE
:10185000A11D621F839FA00D611D221F749F33274E
:10186000A00D611D231F849F600D211D822F762FE7
:101870006A2F11249F5750408AF0E1F088234AF0E4
:10188000EE0FFF1FBB1F661F771F881F9150504030
:10189000A9F79E3F510570F060CFAACF5F3FECF3F0
:1018A000983EDCF3869577956795B795F795E7951C
:1018B0009F5FC1F7FE2B880F911D9695879597F92D
:1018C0000895A1E21A2EAA1BBB1BFD010DC0AA1F81
:1018D000BB1FEE1FFF1FA217B307E407F50720F099
:1018E000A21BB30BE40BF50B661F771F881F991F14
:1018F0001A9469F760957095809590959B01AC015D
:10190000BD01CF01089597FB092E05260ED057FD86
:1019100004D0D7DF0AD0001C38F45095409530959C
:1019200021953F4F4F4F5F4F0895F6F79095809563
:10193000709561957F4F8F4F9F4F0895EE0FFF1F5A
:101940000590F491E02D0994F894FFCF0000000079
:10195000B2044805480479045904A20400000000B8
:061960001B092909210901
:00000001FF
